{"abi":[{"type":"constructor","inputs":[{"name":"_router","type":"address","internalType":"address"},{"name":"_link","type":"address","internalType":"address"},{"name":"_owners","type":"address[]","internalType":"address[]"},{"name":"_appBridge","type":"address","internalType":"address"}],"stateMutability":"nonpayable"},{"type":"receive","stateMutability":"payable"},{"type":"function","name":"_buildCCIPMessage","inputs":[{"name":"_receiver","type":"address","internalType":"address"},{"name":"_text","type":"string","internalType":"string"},{"name":"_token","type":"address","internalType":"address"},{"name":"_amount","type":"uint256","internalType":"uint256"},{"name":"_feeTokenAddress","type":"address","internalType":"address"}],"outputs":[{"name":"","type":"tuple","internalType":"struct Client.EVM2AnyMessage","components":[{"name":"receiver","type":"bytes","internalType":"bytes"},{"name":"data","type":"bytes","internalType":"bytes"},{"name":"tokenAmounts","type":"tuple[]","internalType":"struct Client.EVMTokenAmount[]","components":[{"name":"token","type":"address","internalType":"address"},{"name":"amount","type":"uint256","internalType":"uint256"}]},{"name":"feeToken","type":"address","internalType":"address"},{"name":"extraArgs","type":"bytes","internalType":"bytes"}]}],"stateMutability":"pure"},{"type":"function","name":"acceptOwnership","inputs":[],"outputs":[],"stateMutability":"nonpayable"},{"type":"function","name":"allowlistDestinationChain","inputs":[{"name":"_destinationChainSelector","type":"uint64","internalType":"uint64"},{"name":"allowed","type":"bool","internalType":"bool"}],"outputs":[],"stateMutability":"nonpayable"},{"type":"function","name":"allowlistSender","inputs":[{"name":"_sender","type":"address","internalType":"address"},{"name":"allowed","type":"bool","internalType":"bool"}],"outputs":[],"stateMutability":"nonpayable"},{"type":"function","name":"allowlistSourceChain","inputs":[{"name":"_sourceChainSelector","type":"uint64","internalType":"uint64"},{"name":"allowed","type":"bool","internalType":"bool"}],"outputs":[],"stateMutability":"nonpayable"},{"type":"function","name":"allowlistedDestinationChains","inputs":[{"name":"","type":"uint64","internalType":"uint64"}],"outputs":[{"name":"","type":"bool","internalType":"bool"}],"stateMutability":"view"},{"type":"function","name":"allowlistedSenders","inputs":[{"name":"","type":"address","internalType":"address"}],"outputs":[{"name":"","type":"bool","internalType":"bool"}],"stateMutability":"view"},{"type":"function","name":"allowlistedSourceChains","inputs":[{"name":"","type":"uint64","internalType":"uint64"}],"outputs":[{"name":"","type":"bool","internalType":"bool"}],"stateMutability":"view"},{"type":"function","name":"ccipReceive","inputs":[{"name":"message","type":"tuple","internalType":"struct Client.Any2EVMMessage","components":[{"name":"messageId","type":"bytes32","internalType":"bytes32"},{"name":"sourceChainSelector","type":"uint64","internalType":"uint64"},{"name":"sender","type":"bytes","internalType":"bytes"},{"name":"data","type":"bytes","internalType":"bytes"},{"name":"destTokenAmounts","type":"tuple[]","internalType":"struct Client.EVMTokenAmount[]","components":[{"name":"token","type":"address","internalType":"address"},{"name":"amount","type":"uint256","internalType":"uint256"}]}]}],"outputs":[],"stateMutability":"nonpayable"},{"type":"function","name":"getLastReceivedMessageDetails","inputs":[],"outputs":[{"name":"messageId","type":"bytes32","internalType":"bytes32"},{"name":"text","type":"string","internalType":"string"},{"name":"tokenAddress","type":"address","internalType":"address"},{"name":"tokenAmount","type":"uint256","internalType":"uint256"}],"stateMutability":"view"},{"type":"function","name":"getRouter","inputs":[],"outputs":[{"name":"","type":"address","internalType":"address"}],"stateMutability":"view"},{"type":"function","name":"owner","inputs":[],"outputs":[{"name":"","type":"address","internalType":"address"}],"stateMutability":"view"},{"type":"function","name":"sendMessagePayLINK","inputs":[{"name":"_destinationChainSelector","type":"uint64","internalType":"uint64"},{"name":"_receiver","type":"address","internalType":"address"},{"name":"_text","type":"string","internalType":"string"},{"name":"_token","type":"address","internalType":"address"},{"name":"_amount","type":"uint256","internalType":"uint256"}],"outputs":[{"name":"messageId","type":"bytes32","internalType":"bytes32"}],"stateMutability":"nonpayable"},{"type":"function","name":"sendMessagePayNative","inputs":[{"name":"_destinationChainSelector","type":"uint64","internalType":"uint64"},{"name":"_receiver","type":"address","internalType":"address"},{"name":"_text","type":"string","internalType":"string"},{"name":"_token","type":"address","internalType":"address"},{"name":"_amount","type":"uint256","internalType":"uint256"}],"outputs":[{"name":"messageId","type":"bytes32","internalType":"bytes32"}],"stateMutability":"nonpayable"},{"type":"function","name":"setAppBridge","inputs":[{"name":"_appBridge","type":"address","internalType":"address"}],"outputs":[],"stateMutability":"nonpayable"},{"type":"function","name":"supportsInterface","inputs":[{"name":"interfaceId","type":"bytes4","internalType":"bytes4"}],"outputs":[{"name":"","type":"bool","internalType":"bool"}],"stateMutability":"pure"},{"type":"function","name":"transferOwnership","inputs":[{"name":"to","type":"address","internalType":"address"}],"outputs":[],"stateMutability":"nonpayable"},{"type":"function","name":"withdraw","inputs":[{"name":"_beneficiary","type":"address","internalType":"address"}],"outputs":[],"stateMutability":"nonpayable"},{"type":"function","name":"withdrawFunds","inputs":[{"name":"_beneficiary","type":"address","internalType":"address"},{"name":"_token","type":"address","internalType":"address"}],"outputs":[],"stateMutability":"nonpayable"},{"type":"function","name":"withdrawToken","inputs":[{"name":"_beneficiary","type":"address","internalType":"address"},{"name":"_token","type":"address","internalType":"address"}],"outputs":[],"stateMutability":"nonpayable"},{"type":"event","name":"MessageReceived","inputs":[{"name":"messageId","type":"bytes32","indexed":true,"internalType":"bytes32"},{"name":"sourceChainSelector","type":"uint64","indexed":true,"internalType":"uint64"},{"name":"sender","type":"address","indexed":false,"internalType":"address"},{"name":"text","type":"string","indexed":false,"internalType":"string"},{"name":"token","type":"address","indexed":false,"internalType":"address"},{"name":"tokenAmount","type":"uint256","indexed":false,"internalType":"uint256"}],"anonymous":false},{"type":"event","name":"MessageSent","inputs":[{"name":"messageId","type":"bytes32","indexed":true,"internalType":"bytes32"},{"name":"destinationChainSelector","type":"uint64","indexed":true,"internalType":"uint64"},{"name":"receiver","type":"address","indexed":false,"internalType":"address"},{"name":"text","type":"string","indexed":false,"internalType":"string"},{"name":"token","type":"address","indexed":false,"internalType":"address"},{"name":"tokenAmount","type":"uint256","indexed":false,"internalType":"uint256"},{"name":"feeToken","type":"address","indexed":false,"internalType":"address"},{"name":"fees","type":"uint256","indexed":false,"internalType":"uint256"}],"anonymous":false},{"type":"event","name":"OwnershipTransferRequested","inputs":[{"name":"from","type":"address","indexed":true,"internalType":"address"},{"name":"to","type":"address","indexed":true,"internalType":"address"}],"anonymous":false},{"type":"event","name":"OwnershipTransferred","inputs":[{"name":"from","type":"address","indexed":true,"internalType":"address"},{"name":"to","type":"address","indexed":true,"internalType":"address"}],"anonymous":false},{"type":"error","name":"DestinationChainNotAllowed","inputs":[{"name":"destinationChainSelector","type":"uint64","internalType":"uint64"}]},{"type":"error","name":"FailedToWithdrawEth","inputs":[{"name":"owner","type":"address","internalType":"address"},{"name":"target","type":"address","internalType":"address"},{"name":"value","type":"uint256","internalType":"uint256"}]},{"type":"error","name":"InvalidReceiverAddress","inputs":[]},{"type":"error","name":"InvalidRouter","inputs":[{"name":"router","type":"address","internalType":"address"}]},{"type":"error","name":"NotEnoughBalance","inputs":[{"name":"currentBalance","type":"uint256","internalType":"uint256"},{"name":"calculatedFees","type":"uint256","internalType":"uint256"}]},{"type":"error","name":"NothingToWithdraw","inputs":[]},{"type":"error","name":"SenderNotAllowed","inputs":[{"name":"sender","type":"address","internalType":"address"}]},{"type":"error","name":"SourceChainNotAllowed","inputs":[{"name":"sourceChainSelector","type":"uint64","internalType":"uint64"}]}],"bytecode":{"object":"0x60a06040523461025f576120188038038061001981610264565b92833981019060808183031261025f5761003281610289565b9061003f60208201610289565b60408201519093906001600160401b03811161025f5782019181601f8401121561025f578251916001600160401b0383116101d6578260051b936020610086818701610264565b8095815201906020829682010192831161025f57602001905b8282106102475750505060606100b59101610289565b926001600160a01b038116156102315760805233156101ec57600080546001600160a01b0319163317905551906001600160401b0382116101d6576801000000000000000082116101d65760025482600255808310610190575b506002600052602060002060005b83811061017357600380546001600160a01b038781166001600160a01b031992831617909255600b805492891692909116919091179055604051611d7a908161029e823960805181818161027901526107f20152f35b82516001600160a01b03168183015560209092019160010161011d565b60026000527f405787fa12a823e0f2b7631cc41b3ba8828b3321ca811111fa75cd3aa3bb5ace9081019083015b8181106101ca575061010f565b600081556001016101bd565b634e487b7160e01b600052604160045260246000fd5b60405162461bcd60e51b815260206004820152601860248201527f43616e6e6f7420736574206f776e657220746f207a65726f00000000000000006044820152606490fd5b6335fdcccd60e21b600052600060045260246000fd5b6020809161025484610289565b81520191019061009f565b600080fd5b6040519190601f01601f191682016001600160401b038111838210176101d657604052565b51906001600160a01b038216820361025f5756fe6080604052600436101561001b575b361561001957600080fd5b005b60003560e01c80620fa9fb1461145057806301ffc9a7146113fa578063174de0e11461136f5780631dd11dac14610fb7578063263596a514610ec05780633aeac4e114610e8e5780634030d52114610e4f57806351cff8d914610dd95780636159ada114610d9a57806375c67c6614610d5b57806379ba509714610cae57806385572ffb146107c05780638da5cb5b146107975780638f3f4e1a1461038657806396d3b83d14610332578063ae1ded0c146102a8578063b0f479a114610263578063db04fa491461020f578063eab5b02c146101bc5763f2fde38b0361000e57346101b75760203660031901126101b7576101146114cc565b61011c611bd7565b6001600160a01b031633811461017257600180546001600160a01b03191682179055600080546001600160a01b0316907fed8889f560326eb138920d842192f0eb3dd22b4f139c87a2c57538e05bae12789080a3005b60405162461bcd60e51b815260206004820152601760248201527f43616e6e6f74207472616e7366657220746f2073656c660000000000000000006044820152606490fd5b600080fd5b346101b75760403660031901126101b7576100196101d86114cc565b6101e06115f1565b906101e9611bd7565b60018060a01b0316600052600a60205260406000209060ff801983541691151516179055565b346101b75760403660031901126101b75761001961022b6114f8565b6001600160401b0361023b6115f1565b91610244611bd7565b16600052600960205260406000209060ff801983541691151516179055565b346101b75760003660031901126101b7576040517f00000000000000000000000000000000000000000000000000000000000000006001600160a01b03168152602090f35b346101b75760a03660031901126101b7576102c16114cc565b6024356001600160401b0381116101b7576102e090369060040161150e565b91604435906001600160a01b03821682036101b757608435916001600160a01b03831683036101b75761032e9461031a9460643593611a86565b604051918291602083526020830190611600565b0390f35b346101b75760403660031901126101b75761001961034e6114f8565b6001600160401b0361035e6115f1565b91610367611bd7565b16600052600860205260406000209060ff801983541691151516179055565b346101b7576103943661153b565b909392946103a0611bd7565b6001600160401b0381169384600052600860205260ff6040600020541615610782576001600160a01b038116928315610771576103ee889282898860018060a01b03600b5416968794611a86565b9260405163b0f479a160e01b8152602081600481305afa90811561061057600091610742575b506040516320487ded60e01b81526001600160a01b039190911698909360208580610443898760048401611954565b03818d5afa9485156106105760009561070e575b506040516370a0823160e01b8152306004820152602081602481855afa908115610610576000916106dc575b5085116106645760405163095ea7b360e01b81526001600160a01b038b1660048201526024810186905290602090829060449082906000905af1801561061057610647575b5060405163095ea7b360e01b81526001600160a01b038a811660048301526024820185905290999116949060208a60448160008a5af1928315610610576105309a60209461061c575b506000604051809c819582946396f4e9f960e01b845260048401611954565b03925af1968715610610576000976105b5575b50917f437cb3c5ba4364504dda6ba3c906ffb0897c7beeb1675f3aaf22a1b9a99b3994939160209888969461059560018060a01b03600b541692604051978897885260c08e89015260c088019161198c565b9360408601526060850152608084015260a08301520390a3604051908152f35b909497966020823d602011610608575b816105d260209383611799565b810103126106055750519596937f437cb3c5ba4364504dda6ba3c906ffb0897c7beeb1675f3aaf22a1b9a99b3994610543565b80fd5b3d91506105c5565b6040513d6000823e3d90fd5b61063b90853d8711610640575b6106338183611799565b810190611974565b610511565b503d610629565b61065f9060203d602011610640576106338183611799565b6104c8565b602460208692604051928380926370a0823160e01b82523060048301525afa908115610610576000916106aa575b50634787a10360e11b60005260045260245260446000fd5b90506020813d6020116106d4575b816106c560209383611799565b810103126101b7575182610692565b3d91506106b8565b90506020813d602011610706575b816106f760209383611799565b810103126101b757518c610483565b3d91506106ea565b90946020823d60201161073a575b8161072960209383611799565b81010312610605575051938b610457565b3d915061071c565b610764915060203d60201161076a575b61075c8183611799565b810190611935565b8a610414565b503d610752565b63502ffa3f60e11b60005260046000fd5b8463206abad760e01b60005260045260246000fd5b346101b75760003660031901126101b7576000546040516001600160a01b039091168152602090f35b346101b75760203660031901126101b7576004356001600160401b0381116101b75760a060031982360301126101b7577f00000000000000000000000000000000000000000000000000000000000000006001600160a01b03163303610c995760009060405161082f81611732565b816004013581526024820135906001600160401b0382168203610c95576020810191825260448301356001600160401b038111610c91576108769060043691860101611a32565b926040820193845260648101356001600160401b038111610c89576108a19060043691840101611a32565b90606083019182526084810135906001600160401b038211610c8d57019136602384011215610c895760048301356001600160401b038111610c755760208160051b01936108f26040519586611799565b818552602060048187019360061b8301010190368211610c7157602401915b818310610c2857505050608081019283526001600160401b03845116855161094960018060a01b039160208082518301019101611935565b1690808852600960205260ff60408920541615610c165750808752600a60205260ff60408820541615610c0457508051600455610990825160208082518301019101611c29565b8051906001600160401b038211610bf0576109ac6007546119ad565b601f8111610b85575b50602090601f8311600114610ae2577f90ec910a8f80bb04e184a806e2ae6f8786ef2ae898859a3180f953397edc120195949383610a7e94610a6d946001600160401b03948d92610ad7575b50508160011b916000199060031b1c1916176007555b85516001600160a01b0390610a2b90611a79565b5151166bffffffffffffffffffffffff60a01b60055416176005556020610a528751611a79565b51015160065551965116965160208082518301019101611935565b915160208082518301019101611c29565b916020610a9f60018060a01b03610a958451611a79565b5151169251611a79565b510151610ac660405194859460018060a01b031685526080602086015260808501906115cc565b91604084015260608301520390a380f35b015190508c80610a01565b60078952600080516020611d258339815191529190601f1984168a5b818110610b6d575084610a6d946001600160401b03947f90ec910a8f80bb04e184a806e2ae6f8786ef2ae898859a3180f953397edc12019a999894610a7e9860019510610b54575b505050811b01600755610a17565b015160001960f88460031b161c191690558c8080610b46565b92936020600181928786015181550195019301610afe565b60078952601f830160051c600080516020611d25833981519152019060208410610bda575b601f0160051c600080516020611d2583398151915201905b818110610bcf57506109b5565b898155600101610bc2565b600080516020611d258339815191529150610baa565b634e487b7160e01b88526041600452602488fd5b6368692cbb60e11b8752600452602486fd5b63042784cf60e31b8852600452602487fd5b604083360312610c715760405190610c3f82611763565b8335906001600160a01b0382168203610c6d5782602092604094528286013583820152815201920191610911565b8a80fd5b8880fd5b634e487b7160e01b87526041600452602487fd5b8580fd5b8680fd5b8480fd5b8380fd5b6335fdcccd60e21b6000523360045260246000fd5b346101b75760003660031901126101b7576001546001600160a01b0381163303610d1d57600080546001600160a01b031980821633908117845593166001556001600160a01b0316907f8be0079c531659141344cd1fd0a4f28419497f9722a3daafe3b4186f6b6457e09080a3005b60405162461bcd60e51b815260206004820152601660248201527526bab9ba10313290383937b837b9b2b21037bbb732b960511b6044820152606490fd5b346101b75760203660031901126101b7576001600160401b03610d7c6114f8565b166000526008602052602060ff604060002054166040519015158152f35b346101b75760203660031901126101b7576001600160a01b03610dbb6114cc565b16600052600a602052602060ff604060002054166040519015158152f35b346101b75760203660031901126101b757610df26114cc565b610dfa611bd7565b47908115610e3e57600080808085855af1610e13611a02565b5015610e1b57005b639d11f56360e01b6000523360045260018060a01b031660245260445260646000fd5b630686827b60e51b60005260046000fd5b346101b75760203660031901126101b7576001600160401b03610e706114f8565b166000526009602052602060ff604060002054166040519015158152f35b346101b75760403660031901126101b757610019610eaa6114cc565b610eb26114e2565b90610ebb611bd7565b6117ba565b346101b75760003660031901126101b7576004546005546006546040516007549093926001600160a01b03169190846000610efa836119ad565b8083529260018116908115610f985750600114610f49575b610f1e92500385611799565b610f3a60405194859485526080602086015260808501906115cc565b91604084015260608301520390f35b50906007600052600080516020611d25833981519152906000915b818310610f7c575050906020610f1e92820101610f12565b6020919350806001915483858b01015201910190918692610f64565b60209250610f1e94915060ff191682840152151560051b820101610f12565b346101b757610fc53661153b565b90610fd295949395611bd7565b6001600160401b0385169384600052600860205260ff6040600020541615610782576001600160a01b0316918215610771576000906060608060405161101781611732565b8281528260208201528260408201528483820152015260409788519261103d8a85611799565b60018452601f198a01815b81811061134d5750506110b8908a519561106187611763565b6001600160a01b0316808752602087018590529561107e86611a79565b5261108885611a79565b508a5194876020870152602086526110a08c87611799565b6110c68c805194859160208084015282018c8861198c565b03601f198101855284611799565b8b51926110d28461177e565b62030d4084528c51936397a657c960e01b6020860152516024850152602484526110fd604485611799565b8c519661110988611732565b875260208701528b86015260608501526080840152885163b0f479a160e01b8152602081600481305afa90811561134257600091611323575b5089516320487ded60e01b81526001600160a01b039190911698909360208580611170848660048401611954565b03818d5afa948515611318576000956112e4575b504785116112cb578a5163095ea7b360e01b81526001600160a01b038b166004820152602481018590529960208b60448160008b5af19283156112c0576111ea9b6020946112a5575b50868d51809d819582946396f4e9f960e01b845260048401611954565b03925af197881561129a57600098611263575b5092889695928895926112447f437cb3c5ba4364504dda6ba3c906ffb0897c7beeb1675f3aaf22a1b9a99b39949660209c51968796875260c08e88015260c087019161198c565b928985015260608401526000608084015260a08301520390a351908152f35b9096976020823d602011611292575b8161127f60209383611799565b81010312610605575051969560206111fd565b3d9150611272565b89513d6000823e3d90fd5b6112bb90853d8711610640576106338183611799565b6111cd565b8c513d6000823e3d90fd5b8447634787a10360e11b60005260045260245260446000fd5b90946020823d602011611310575b816112ff60209383611799565b81010312610605575051938b611184565b3d91506112f2565b8b513d6000823e3d90fd5b61133c915060203d60201161076a5761075c8183611799565b8a611142565b8a513d6000823e3d90fd5b6020908c5161135b81611763565b848152848382015282828901015201611048565b346101b75760203660031901126101b7576113886114cc565b6002546000805b8281106113c3575b836113a1836116db565b600380546001600160a01b0319166001600160a01b0392909216919091179055005b6113cc816116aa565b905460039190911b1c6001600160a01b031633146113ec5760010161138f565b5050506113a1600183611397565b346101b75760203660031901126101b75760043563ffffffff60e01b81168091036101b7576020906385572ffb60e01b811490811561143f575b506040519015158152f35b6301ffc9a760e01b14905082611434565b346101b75760403660031901126101b7576114696114cc565b6114716114e2565b6000916000600254905b818110611491575b5050610ebb610019936116db565b61149a816116aa565b905460039190911b1c6001600160a01b031633146114ba5760010161147b565b50506100199250610ebb600193611483565b600435906001600160a01b03821682036101b757565b602435906001600160a01b03821682036101b757565b600435906001600160401b03821682036101b757565b9181601f840112156101b7578235916001600160401b0383116101b757602083818601950101116101b757565b60a06003198201126101b7576004356001600160401b03811681036101b757916024356001600160a01b03811681036101b75791604435906001600160401b0382116101b75761158d9160040161150e565b90916064356001600160a01b03811681036101b7579060843590565b60005b8381106115bc5750506000910152565b81810151838201526020016115ac565b906020916115e5815180928185528580860191016115a9565b601f01601f1916010190565b6024359081151582036101b757565b919061162a611618845160a0845260a08401906115cc565b602085015183820360208501526115cc565b9060408401519181810360408301526020808451928381520193019060005b81811061167f57505050608061167c939460018060a01b03606082015116606084015201519060808184039101526115cc565b90565b825180516001600160a01b031686526020908101518187015260409095019490920191600101611649565b6002548110156116c557600260005260206000200190600090565b634e487b7160e01b600052603260045260246000fd5b156116e257565b60405162461bcd60e51b815260206004820152602260248201527f4f6e6c79206f776e6572732063616e2063616c6c20746869732066756e63746960448201526137b760f11b6064820152608490fd5b60a081019081106001600160401b0382111761174d57604052565b634e487b7160e01b600052604160045260246000fd5b604081019081106001600160401b0382111761174d57604052565b602081019081106001600160401b0382111761174d57604052565b90601f801991011681019081106001600160401b0382111761174d57604052565b6040516370a0823160e01b815230600482015290916001600160a01b031690602081602481855afa90811561061057600091611903575b508015610e3e5760405163a9059cbb60e01b602082019081526001600160a01b0394909416602482015260448082019290925290815261188791611836606483611799565b6000806040958651946118498887611799565b602086527f5361666545524332303a206c6f772d6c6576656c2063616c6c206661696c65646020870152519082855af1611881611a02565b91611c87565b8051908161189457505050565b6020806118a5938301019101611974565b156118ad5750565b5162461bcd60e51b815260206004820152602a60248201527f5361666545524332303a204552433230206f7065726174696f6e20646964206e6044820152691bdd081cdd58d8d9595960b21b6064820152608490fd5b906020823d60201161192d575b8161191d60209383611799565b81010312610605575051386117f1565b3d9150611910565b908160209103126101b757516001600160a01b03811681036101b75790565b6040906001600160401b0361167c94931681528160208201520190611600565b908160209103126101b7575180151581036101b75790565b908060209392818452848401376000828201840152601f01601f1916010190565b90600182811c921680156119dd575b60208310146119c757565b634e487b7160e01b600052602260045260246000fd5b91607f16916119bc565b6001600160401b03811161174d57601f01601f191660200190565b3d15611a2d573d90611a13826119e7565b91611a216040519384611799565b82523d6000602084013e565b606090565b81601f820112156101b757803590611a49826119e7565b92611a576040519485611799565b828452602083830101116101b757816000926020809301838601378301015290565b8051156116c55760200190565b949290939160606080604051611a9b81611732565b8281528260208201528260408201526000838201520152604091825193611ac28486611799565b60018552601f19840160005b818110611bb357505090611b509291845191611ae983611763565b6001600160a01b031682526020820152611b0285611a79565b52611b0c84611a79565b5082519660018060a01b0316602088015260208752611b2b8388611799565b611b4283519687926020808501528584019161198c565b03601f198101865285611799565b805193611b5c8561177e565b62030d4085528151946397a657c960e01b602087015251602486015260248552611b87604486611799565b815195611b9387611732565b865260208601528401526001600160a01b03166060830152608082015290565b6020908651611bc181611763565b6000815260008382015282828a01015201611ace565b6000546001600160a01b03163303611beb57565b60405162461bcd60e51b815260206004820152601660248201527527b7363c9031b0b63630b1363290313c9037bbb732b960511b6044820152606490fd5b6020818303126101b7578051906001600160401b0382116101b7570181601f820112156101b7578051611c5b816119e7565b92611c696040519485611799565b818452602082840101116101b75761167c91602080850191016115a9565b91929015611ce95750815115611c9b575090565b3b15611ca45790565b60405162461bcd60e51b815260206004820152601d60248201527f416464726573733a2063616c6c20746f206e6f6e2d636f6e74726163740000006044820152606490fd5b825190915015611cfc5750805190602001fd5b60405162461bcd60e51b815260206004820152908190611d209060248301906115cc565b0390fdfea66cc928b5edb82af9bd49922954155ab7b0942694bea4ce44661d9a8736c688a26469706673582212200452c8dc3635ce6195dc7a21320d2cc91de5c115e1b2ca0dc60eaa551ab25f4264736f6c634300081a0033","linkReferences":{}},"methodIdentifiers":{"_buildCCIPMessage(address,string,address,uint256,address)":"ae1ded0c","acceptOwnership()":"79ba5097","allowlistDestinationChain(uint64,bool)":"96d3b83d","allowlistSender(address,bool)":"eab5b02c","allowlistSourceChain(uint64,bool)":"db04fa49","allowlistedDestinationChains(uint64)":"75c67c66","allowlistedSenders(address)":"6159ada1","allowlistedSourceChains(uint64)":"4030d521","ccipReceive((bytes32,uint64,bytes,bytes,(address,uint256)[]))":"85572ffb","getLastReceivedMessageDetails()":"263596a5","getRouter()":"b0f479a1","owner()":"8da5cb5b","sendMessagePayLINK(uint64,address,string,address,uint256)":"8f3f4e1a","sendMessagePayNative(uint64,address,string,address,uint256)":"1dd11dac","setAppBridge(address)":"174de0e1","supportsInterface(bytes4)":"01ffc9a7","transferOwnership(address)":"f2fde38b","withdraw(address)":"51cff8d9","withdrawFunds(address,address)":"000fa9fb","withdrawToken(address,address)":"3aeac4e1"},"storageLayout":{"storage":[{"astId":36602,"contract":"src/CCIPPTT.sol:ProgrammableTokenTransfers","label":"s_owner","offset":0,"slot":"0","type":"t_address"},{"astId":36604,"contract":"src/CCIPPTT.sol:ProgrammableTokenTransfers","label":"s_pendingOwner","offset":0,"slot":"1","type":"t_address"},{"astId":37756,"contract":"src/CCIPPTT.sol:ProgrammableTokenTransfers","label":"owners","offset":0,"slot":"2","type":"t_array(t_address)dyn_storage"},{"astId":37758,"contract":"src/CCIPPTT.sol:ProgrammableTokenTransfers","label":"appBridge","offset":0,"slot":"3","type":"t_address"},{"astId":37826,"contract":"src/CCIPPTT.sol:ProgrammableTokenTransfers","label":"s_lastReceivedMessageId","offset":0,"slot":"4","type":"t_bytes32"},{"astId":37828,"contract":"src/CCIPPTT.sol:ProgrammableTokenTransfers","label":"s_lastReceivedTokenAddress","offset":0,"slot":"5","type":"t_address"},{"astId":37830,"contract":"src/CCIPPTT.sol:ProgrammableTokenTransfers","label":"s_lastReceivedTokenAmount","offset":0,"slot":"6","type":"t_uint256"},{"astId":37832,"contract":"src/CCIPPTT.sol:ProgrammableTokenTransfers","label":"s_lastReceivedText","offset":0,"slot":"7","type":"t_string_storage"},{"astId":37836,"contract":"src/CCIPPTT.sol:ProgrammableTokenTransfers","label":"allowlistedDestinationChains","offset":0,"slot":"8","type":"t_mapping(t_uint64,t_bool)"},{"astId":37840,"contract":"src/CCIPPTT.sol:ProgrammableTokenTransfers","label":"allowlistedSourceChains","offset":0,"slot":"9","type":"t_mapping(t_uint64,t_bool)"},{"astId":37844,"contract":"src/CCIPPTT.sol:ProgrammableTokenTransfers","label":"allowlistedSenders","offset":0,"slot":"10","type":"t_mapping(t_address,t_bool)"},{"astId":37847,"contract":"src/CCIPPTT.sol:ProgrammableTokenTransfers","label":"s_linkToken","offset":0,"slot":"11","type":"t_contract(IERC20)36866"}],"types":{"t_address":{"encoding":"inplace","label":"address","numberOfBytes":"20"},"t_array(t_address)dyn_storage":{"encoding":"dynamic_array","label":"address[]","numberOfBytes":"32","base":"t_address"},"t_bool":{"encoding":"inplace","label":"bool","numberOfBytes":"1"},"t_bytes32":{"encoding":"inplace","label":"bytes32","numberOfBytes":"32"},"t_contract(IERC20)36866":{"encoding":"inplace","label":"contract IERC20","numberOfBytes":"20"},"t_mapping(t_address,t_bool)":{"encoding":"mapping","key":"t_address","label":"mapping(address => bool)","numberOfBytes":"32","value":"t_bool"},"t_mapping(t_uint64,t_bool)":{"encoding":"mapping","key":"t_uint64","label":"mapping(uint64 => bool)","numberOfBytes":"32","value":"t_bool"},"t_string_storage":{"encoding":"bytes","label":"string","numberOfBytes":"32"},"t_uint256":{"encoding":"inplace","label":"uint256","numberOfBytes":"32"},"t_uint64":{"encoding":"inplace","label":"uint64","numberOfBytes":"8"}}},"id":42}