{"abi":[{"type":"function","name":"EVM_EXTRA_ARGS_V1_TAG","inputs":[],"outputs":[{"name":"","type":"bytes4","internalType":"bytes4"}],"stateMutability":"view"}],"bytecode":{"object":"0x60808060405234601857607b908161001e823930815050f35b600080fdfe6080806040526004361015601257600080fd5b60003560e01c633ab8c0d014602657600080fd5b60003660031901126040576397a657c960e01b8152602090f35b600080fdfea264697066735822122035a38d7dabbf7eb0f0c1b6702183d0d7ca6ebd6522a9018c2a4559810df4126564736f6c63430008140033","linkReferences":{}},"methodIdentifiers":{"EVM_EXTRA_ARGS_V1_TAG()":"3ab8c0d0"},"id":28}