{"abi":[{"type":"constructor","inputs":[{"name":"initialOwner","type":"address","internalType":"address"},{"name":"name_","type":"string","internalType":"string"},{"name":"symbol_","type":"string","internalType":"string"},{"name":"marketCap_","type":"uint256","internalType":"uint256"},{"name":"marketCapTolerance_","type":"uint256","internalType":"uint256"},{"name":"reserveRatio_","type":"uint256","internalType":"uint256"},{"name":"_ccipBridge","type":"address","internalType":"address"},{"name":"_ccipReceiverAddress","type":"address","internalType":"address"},{"name":"_uniswapRouter","type":"address","internalType":"contract ISwapRouter"},{"name":"_usdcAddress","type":"address","internalType":"address"},{"name":"_nativeAddress","type":"address","internalType":"address"},{"name":"_pythAddress","type":"address","internalType":"address"},{"name":"_pythFeedId","type":"bytes32","internalType":"bytes32"}],"stateMutability":"nonpayable"},{"type":"function","name":"DECIMALS","inputs":[],"outputs":[{"name":"","type":"uint256","internalType":"uint256"}],"stateMutability":"view"},{"type":"function","name":"allowance","inputs":[{"name":"owner","type":"address","internalType":"address"},{"name":"spender","type":"address","internalType":"address"}],"outputs":[{"name":"","type":"uint256","internalType":"uint256"}],"stateMutability":"view"},{"type":"function","name":"approve","inputs":[{"name":"spender","type":"address","internalType":"address"},{"name":"value","type":"uint256","internalType":"uint256"}],"outputs":[{"name":"","type":"bool","internalType":"bool"}],"stateMutability":"nonpayable"},{"type":"function","name":"balanceOf","inputs":[{"name":"account","type":"address","internalType":"address"}],"outputs":[{"name":"","type":"uint256","internalType":"uint256"}],"stateMutability":"view"},{"type":"function","name":"ccipBridge","inputs":[],"outputs":[{"name":"","type":"address","internalType":"address"}],"stateMutability":"view"},{"type":"function","name":"decimals","inputs":[],"outputs":[{"name":"","type":"uint8","internalType":"uint8"}],"stateMutability":"view"},{"type":"function","name":"mint","inputs":[{"name":"priceUpdate","type":"bytes[]","internalType":"bytes[]"}],"outputs":[{"name":"","type":"uint256","internalType":"uint256"}],"stateMutability":"payable"},{"type":"function","name":"name","inputs":[],"outputs":[{"name":"","type":"string","internalType":"string"}],"stateMutability":"view"},{"type":"function","name":"owner","inputs":[],"outputs":[{"name":"","type":"address","internalType":"address"}],"stateMutability":"view"},{"type":"function","name":"renounceOwnership","inputs":[],"outputs":[],"stateMutability":"nonpayable"},{"type":"function","name":"reserveBalance","inputs":[],"outputs":[{"name":"","type":"uint256","internalType":"uint256"}],"stateMutability":"view"},{"type":"function","name":"reserveRatio","inputs":[],"outputs":[{"name":"","type":"uint256","internalType":"uint256"}],"stateMutability":"view"},{"type":"function","name":"swapRouter","inputs":[],"outputs":[{"name":"","type":"address","internalType":"contract ISwapRouter"}],"stateMutability":"view"},{"type":"function","name":"symbol","inputs":[],"outputs":[{"name":"","type":"string","internalType":"string"}],"stateMutability":"view"},{"type":"function","name":"totalSupply","inputs":[],"outputs":[{"name":"","type":"uint256","internalType":"uint256"}],"stateMutability":"view"},{"type":"function","name":"transfer","inputs":[{"name":"to","type":"address","internalType":"address"},{"name":"value","type":"uint256","internalType":"uint256"}],"outputs":[{"name":"","type":"bool","internalType":"bool"}],"stateMutability":"nonpayable"},{"type":"function","name":"transferFrom","inputs":[{"name":"from","type":"address","internalType":"address"},{"name":"to","type":"address","internalType":"address"},{"name":"value","type":"uint256","internalType":"uint256"}],"outputs":[{"name":"","type":"bool","internalType":"bool"}],"stateMutability":"nonpayable"},{"type":"function","name":"transferOwnership","inputs":[{"name":"newOwner","type":"address","internalType":"address"}],"outputs":[],"stateMutability":"nonpayable"},{"type":"event","name":"Approval","inputs":[{"name":"owner","type":"address","indexed":true,"internalType":"address"},{"name":"spender","type":"address","indexed":true,"internalType":"address"},{"name":"value","type":"uint256","indexed":false,"internalType":"uint256"}],"anonymous":false},{"type":"event","name":"MarketCapReached","inputs":[{"name":"marketCap","type":"uint256","indexed":false,"internalType":"uint256"},{"name":"marketCapTolerance","type":"uint256","indexed":false,"internalType":"uint256"},{"name":"totalSupply","type":"uint256","indexed":false,"internalType":"uint256"}],"anonymous":false},{"type":"event","name":"Mint","inputs":[{"name":"to","type":"address","indexed":false,"internalType":"address"},{"name":"amountMinted","type":"uint256","indexed":false,"internalType":"uint256"},{"name":"amountDeposited","type":"uint256","indexed":false,"internalType":"uint256"}],"anonymous":false},{"type":"event","name":"OwnershipTransferred","inputs":[{"name":"previousOwner","type":"address","indexed":true,"internalType":"address"},{"name":"newOwner","type":"address","indexed":true,"internalType":"address"}],"anonymous":false},{"type":"event","name":"Transfer","inputs":[{"name":"from","type":"address","indexed":true,"internalType":"address"},{"name":"to","type":"address","indexed":true,"internalType":"address"},{"name":"value","type":"uint256","indexed":false,"internalType":"uint256"}],"anonymous":false},{"type":"error","name":"ERC20InsufficientAllowance","inputs":[{"name":"spender","type":"address","internalType":"address"},{"name":"allowance","type":"uint256","internalType":"uint256"},{"name":"needed","type":"uint256","internalType":"uint256"}]},{"type":"error","name":"ERC20InsufficientBalance","inputs":[{"name":"sender","type":"address","internalType":"address"},{"name":"balance","type":"uint256","internalType":"uint256"},{"name":"needed","type":"uint256","internalType":"uint256"}]},{"type":"error","name":"ERC20InvalidApprover","inputs":[{"name":"approver","type":"address","internalType":"address"}]},{"type":"error","name":"ERC20InvalidReceiver","inputs":[{"name":"receiver","type":"address","internalType":"address"}]},{"type":"error","name":"ERC20InvalidSender","inputs":[{"name":"sender","type":"address","internalType":"address"}]},{"type":"error","name":"ERC20InvalidSpender","inputs":[{"name":"spender","type":"address","internalType":"address"}]},{"type":"error","name":"ErrMarketCapExceeded","inputs":[{"name":"marketCap","type":"uint256","internalType":"uint256"},{"name":"marketCapTolerance","type":"uint256","internalType":"uint256"},{"name":"totalSupply","type":"uint256","internalType":"uint256"},{"name":"amount","type":"uint256","internalType":"uint256"}]},{"type":"error","name":"ErrMarketCapInvalid","inputs":[{"name":"marketCap","type":"uint256","internalType":"uint256"},{"name":"marketCapTolerance","type":"uint256","internalType":"uint256"}]},{"type":"error","name":"ErrMarketCapReached","inputs":[{"name":"marketCap","type":"uint256","internalType":"uint256"},{"name":"marketCapTolerance","type":"uint256","internalType":"uint256"},{"name":"totalSupply","type":"uint256","internalType":"uint256"}]},{"type":"error","name":"OwnableInvalidOwner","inputs":[{"name":"owner","type":"address","internalType":"address"}]},{"type":"error","name":"OwnableUnauthorizedAccount","inputs":[{"name":"account","type":"address","internalType":"address"}]}],"bytecode":{"object":"0x61012060405234620005ac5762001f80803803806200001e81620005b1565b92833981016101a082820312620005ac576200003a82620005d7565b60208301516001600160401b038111620005ac57826200005c918501620005ec565b604084015190926001600160401b038211620005ac576200007f918501620005ec565b9260608101519360808201519260a08301516200009f60c08501620005d7565b96620000ae60e08601620005d7565b61010086810151909990936001600160a01b0385168503620005ac57620000d96101208901620005d7565b95620000e96101408a01620005d7565b97610180620000fc6101608c01620005d7565b9a01518c51909c6001600160401b0382116200047e5760035490600182811c92168015620005a1575b60208310146200045d5781601f8493116200052f575b50602090601f8311600114620004a05760009262000494575b50508160011b916000199060031b1c1916176003555b8051906001600160401b0382116200047e5760045490600182811c9216801562000473575b60208310146200045d5781601f849311620003eb575b50602090601f8311600114620003605760009262000354575b50508160011b916000199060031b1c1916176004555b6001600160a01b03169889156200033b57600580546001600160a01b03198082168d17909255604051919b919691906001600160a01b03167f8be0079c531659141344cd1fd0a4f28419497f9722a3daafe3b4186f6b6457e0600080a3600160ff196008541617600855652079244ea800600955600b54958115801562000332575b620003185750600655600755600a5560805260018060a01b03169060018060a81b03191617600b5560a05260c05260e05260018060a01b031690600c541617600c55815260405161192191826200065f8339608051828181610443015281816109b301528181610aaa01526113c1015260a0518281816101de01528181610921015261138d015260c05182818161087b0152818161097c01528181610a0601528181610a7c01526112ea015260e05182818161084f01526112ba015251815050f35b8260449263dd5c70e360e01b835260048301526024820152fd5b50821562000256565b604051631e4fbdf760e01b815260006004820152602490fd5b015190503880620001be565b600460009081527f8a35acfbc15ff81a39ae7d344fd709f28e8600b4aa8c65c6b64bfe7fe36bd19b9350601f198516905b818110620003d25750908460019594939210620003b8575b505050811b01600455620001d4565b015160001960f88460031b161c19169055388080620003a9565b9293602060018192878601518155019501930162000391565b60046000529091507f8a35acfbc15ff81a39ae7d344fd709f28e8600b4aa8c65c6b64bfe7fe36bd19b601f840160051c81016020851062000455575b90849392915b601f830160051c8201811062000445575050620001a5565b600081558594506001016200042d565b508062000427565b634e487b7160e01b600052602260045260246000fd5b91607f16916200018f565b634e487b7160e01b600052604160045260246000fd5b01519050388062000154565b6003600090815293507fc2575a0e9e593c00f959f8c92f12db2869c3395a3b0502d05e2516446f71f85b91905b601f198416851062000513576001945083601f19811610620004f9575b505050811b016003556200016a565b015160001960f88460031b161c19169055388080620004ea565b81810151835560209485019460019093019290910190620004cd565b60036000529091507fc2575a0e9e593c00f959f8c92f12db2869c3395a3b0502d05e2516446f71f85b601f840160051c81016020851062000599575b90849392915b601f830160051c82018110620005895750506200013b565b6000815585945060010162000571565b50806200056b565b91607f169162000125565b600080fd5b6040519190601f01601f191682016001600160401b038111838210176200047e57604052565b51906001600160a01b0382168203620005ac57565b919080601f84011215620005ac5782516001600160401b0381116200047e5760209062000622601f8201601f19168301620005b1565b92818452828287010111620005ac5760005b8181106200064a57508260009394955001015290565b85810183015184820184015282016200063456fe608080604052600436101561001357600080fd5b600090813560e01c90816306fdde0314610f8c57508063095ea7b314610ed95780630c7d5cd814610ebb57806316c464ae146105bd57806318160ddd1461059f57806323b872dd146104af5780632e0f26251461048e578063313ce5671461047257806334e5ca791461042d57806370a08231146103f5578063715018a6146103975780638da5cb5b1461036e57806395d89b411461025d578063a10954fe1461023f578063a9059cbb1461020d578063c31c9c07146101c8578063dd62ed3e146101795763f2fde38b146100e757600080fd5b34610176576020366003190112610176576101006110b4565b6101086110e0565b6001600160a01b0390811690811561015d57600554826bffffffffffffffffffffffff60a01b821617600555167f8be0079c531659141344cd1fd0a4f28419497f9722a3daafe3b4186f6b6457e0600080a380f35b604051631e4fbdf760e01b815260048101849052602490fd5b80fd5b5034610176576040366003190112610176576101936110b4565b604061019d6110ca565b9260018060a01b03809316815260016020522091166000526020526020604060002054604051908152f35b50346101765780600319360112610176576040517f00000000000000000000000000000000000000000000000000000000000000006001600160a01b03168152602090f35b50346101765760403660031901126101765761023461022a6110b4565b6024359033611195565b602060405160018152f35b50346101765780600319360112610176576020600954604051908152f35b5034610176578060031936011261017657604051908060045491600183811c92818516948515610364575b60209586861081146103505785885287949392918790821561032e5750506001146102d4575b50506102bc92500383611174565b6102d060405192828493845283019061108f565b0390f35b90859250600482527f8a35acfbc15ff81a39ae7d344fd709f28e8600b4aa8c65c6b64bfe7fe36bd19b5b8583106103165750506102bc935082010138806102ae565b805483890185015287945086939092019181016102fe565b92509350506102bc94915060ff191682840152151560051b82010138806102ae565b634e487b7160e01b83526022600452602483fd5b93607f1693610288565b50346101765780600319360112610176576005546040516001600160a01b039091168152602090f35b50346101765780600319360112610176576103b06110e0565b600580546001600160a01b031981169091556000906001600160a01b03167f8be0079c531659141344cd1fd0a4f28419497f9722a3daafe3b4186f6b6457e08280a380f35b5034610176576020366003190112610176576020906040906001600160a01b0361041d6110b4565b1681528083522054604051908152f35b50346101765780600319360112610176576040517f00000000000000000000000000000000000000000000000000000000000000006001600160a01b03168152602090f35b5034610176578060031936011261017657602060405160128152f35b5034610176578060031936011261017657602060405165033f506e44008152f35b5034610176576060366003190112610176576104c96110b4565b6104d16110ca565b60443591604060018060a01b038216948581526001602052203360005260205260406000205493600019850361050d575b506102349350611195565b8385106105795780156105605733156105475761023494849160005260016020526040600020336000526020520360406000205538610502565b604051634a1406b160e11b815260006004820152602490fd5b60405163e602df0560e01b815260006004820152602490fd5b604051637dc7a0d960e11b81523360048201526024810186905260448101859052606490fd5b50346101765780600319360112610176576020600254604051908152f35b50602036600319011261017657600435906001600160401b03821161017657366023830112156101765781600401356001600160401b038111610b03576024830192602436918360051b010111610b035760ff6008541615610e8b573415610e4657600c5460405163d47eed4560e01b81526001600160a01b039491851691906020818061064f8786600484016117c8565b0381865afa908115610d18578591610e14575b50823b15610e10579161068e93918593604051809681958294631df3cbc560e31b8452600484016117c8565b03925af18015610b5c57610de5575b509060025490600954600a546106d16106b6348661173d565b65033f506e4400806106c8838061186b565b0491049061186b565b6001808201808311610dd157811c90825b838310610d9b575050506106ff92916106fa9161186b565b61187e565b916107098361188b565b3315610d825760ff6008541615610d55578261072d916107288261188b565b61173d565b6002553383528260205260408320828154019055604051828152837fddf252ad1be2c89b69c2b068fc378daa952ba7f163c4a11628f55a4df523b3ef60203393a36002546006546007549161078e6064610787858561186b565b048361187e565b81116107eb575b6020856107a43460095461173d565b600955604080513381526020810183905234918101919091527f4c209b5fc8ad50758f13e2e1088ba56a560dff690a1c6fef26394f4c03821c4f90606090a1604051908152f35b604080519283526020830193909352918101919091527f1c57fb69fce4aa788d7d199633f9b1cc5d83d73431cc864621910192aa662ad490606090a160ff19600854166008553083528260205260408320549060405161084a8161110c565b8185817f000000000000000000000000000000000000000000000000000000000000000016948584526020840190837f000000000000000000000000000000000000000000000000000000000000000016825260408501610bb88152846060870130815262ffffff608089019342855260a08a019586528360c08b019789895260e08c01998a52816040519c8d63414bf38960e01b9052511660048d0152511660248b015251166044890152511660648701525160848601525160a48501525160c4840152511660e48201526020816101048188867f0000000000000000000000000000000000000000000000000000000000000000165af1908115610d18578591610d23575b5081600b5416926040519163283a8a3960e11b835284600484015260a060248401528660a4840152837f000000000000000000000000000000000000000000000000000000000000000016604484015260648301526084820152848160c481857f0000000000000000000000000000000000000000000000000000000000000000165afa8015610d18578590610b67575b60209150015184604051936370a0823160e01b8552306004860152602085602481877f0000000000000000000000000000000000000000000000000000000000000000165afa948515610b5c578295610b19575b509160209391610a789360405196879586948593630774476b60e21b855267de41ba4fc9d91ad96004860152602485015260a0604485015260a484019061108f565b90857f0000000000000000000000000000000000000000000000000000000000000000166064840152608483015203927f0000000000000000000000000000000000000000000000000000000000000000165af18015610b0e57610adf575b808080610795565b602090813d8311610b07575b610af58183611174565b81010312610b035781610ad7565b5080fd5b503d610aeb565b6040513d85823e3d90fd5b9293915093506020823d602011610b54575b81610b3860209383611174565b81010312610b4f5790519290919085906020610a36565b600080fd5b3d9150610b2b565b6040513d84823e3d90fd5b503d908186823e610b788282611174565b6020818381010312610d14578051916001600160401b038311610d105760a08383018284010312610d105760405191610bb08361113e565b838101516001600160401b038111610cba57610bd3908383019086840101611760565b8352602084820101516001600160401b038111610cba57610bfb908383019086840101611760565b6020840152604084820101516001600160401b038111610cba5784820101828201601f82011215610cba5780516001600160401b038111610cfc5760405191610c4a60208360051b0184611174565b81835260208084019260061b820101908585018211610cf857602001915b818310610cbe575050506040840152610c856060858301016117b4565b6060840152608084820101516001600160401b038111610cba57602094610cb0938301920101611760565b60808201526109e2565b8880fd5b6040838787010312610cf85760206040918251610cda81611159565b610ce3866117b4565b81528286015183820152815201920191610c68565b8b80fd5b634e487b7160e01b8a52604160045260248afd5b8680fd5b8580fd5b6040513d87823e3d90fd5b90506020813d602011610d4d575b81610d3e60209383611174565b81010312610b4f575138610951565b3d9150610d31565b600654600754604051632ae9893d60e01b8152600481019290925260248201526044810191909152606490fd5b60405163ec442f0560e01b815260048101859052602490fd5b91925090828015610dbb5780610db291830461173d565b821c91906106e2565b634e487b7160e01b600052601260045260246000fd5b634e487b7160e01b88526011600452602488fd5b6001600160401b038111610dfc576040523861069d565b634e487b7160e01b82526041600452602482fd5b8480fd5b90506020813d602011610e3e575b81610e2f60209383611174565b81010312610e10575138610662565b3d9150610e22565b60405162461bcd60e51b815260206004820152601960248201527f4465706f736974206d757374206265206e6f6e2d7a65726f2e000000000000006044820152606490fd5b600654600754600254604051632ae9893d60e01b8152600481019390935260248301919091526044820152606490fd5b50346101765780600319360112610176576020600a54604051908152f35b503461017657604036600319011261017657610ef36110b4565b602435903315610f73576001600160a01b0316918215610f5b5760408291338152600160205281812085825260205220556040519081527f8c5be1e5ebec7d5bd14f71427d1e84f3dd0314c0f7b2291e5b200ac8c7c3b92560203392a3602060405160018152f35b60249060405190634a1406b160e11b82526004820152fd5b60405163e602df0560e01b815260048101849052602490fd5b82346101765780600319360112610176578060035491600183811c92818516948515611062575b602095868610811461035057858852879493929187908215611040575050600114610fe65750506102bc92500383611174565b90859250600382527fc2575a0e9e593c00f959f8c92f12db2869c3395a3b0502d05e2516446f71f85b5b8583106110285750506102bc935082010185806102ae565b80548389018501528794508693909201918101611010565b92509350506102bc94915060ff191682840152151560051b82010185806102ae565b93607f1693610fb3565b60005b83811061107f5750506000910152565b818101518382015260200161106f565b906020916110a88151809281855285808601910161106c565b601f01601f1916010190565b600435906001600160a01b0382168203610b4f57565b602435906001600160a01b0382168203610b4f57565b6005546001600160a01b031633036110f457565b60405163118cdaa760e01b8152336004820152602490fd5b61010081019081106001600160401b0382111761112857604052565b634e487b7160e01b600052604160045260246000fd5b60a081019081106001600160401b0382111761112857604052565b604081019081106001600160401b0382111761112857604052565b90601f801991011681019081106001600160401b0382111761112857604052565b6001600160a01b0380821693928415611724578116801561170b5760ff6008541615610e8b576111c48461188b565b60009480865260209486865260409485882054908282106116da5750817fddf252ad1be2c89b69c2b068fc378daa952ba7f163c4a11628f55a4df523b3ef928892858b528a845203878a20558489528689208181540190558651908152a360025460065460075490611242606461123b848461186b565b048261187e565b8311611252575b50505050505050565b6112937f1c57fb69fce4aa788d7d199633f9b1cc5d83d73431cc864621910192aa662ad4938651938493846040919493926060820195825260208201520152565b0390a160ff196008541660085530845283835281842054918051916112b78361110c565b807f00000000000000000000000000000000000000000000000000000000000000001692838152818782888101978684807f0000000000000000000000000000000000000000000000000000000000000000169a8b815262ffffff838601610bb881528360608801933085528160808a019742895260a08b01998a5260e060c08c019b8d8d52019b8c52519c8d63414bf38960e01b9052511660048d0152511660248b015251166044890152511660648701525160848601525160a48501525160c4840152511660e48201528581610104818a867f0000000000000000000000000000000000000000000000000000000000000000165af19081156116a35787916116ad575b50817f00000000000000000000000000000000000000000000000000000000000000001691600b54169383519163283a8a3960e11b835285600484015260a060248401528860a484015286604484015260648301526084820152868160c481855afa9081156116a3579086918891611543575b50015182516370a0823160e01b8152306004820152938685602481895afa9485156115395787939291899182976114f8575b508596976114a195965198899687958694630774476b60e21b865267de41ba4fc9d91ad96004870152602486015260a0604486015260a485019061108f565b916064840152608483015203925af19081156114ef57506114c6575b80808080611249565b813d83116114e8575b6114d98183611174565b810103126101765780806114bd565b503d6114cf565b513d85823e3d90fd5b92948391949697508092503d8311611532575b6115158183611174565b8101031261152e575193928692909188906114a1611462565b8780fd5b503d61150b565b84513d8a823e3d90fd5b9150503d8088833e6115558183611174565b8101868282031261152e5781516001600160401b039283821161164e57019160a083830312610cba5784519261158a8461113e565b805182811161169f578361159f918301611760565b84528881015182811161169f57836115b8918301611760565b898501528581015182811161169f57810183601f8201121561169f5780519083821161168b578751916115f08c8260051b0184611174565b8083528b8084019160061b83010191868311611687578c01905b8282106116525750505086850152611624606082016117b4565b6060850152608081015191821161164e57916116439189949301611760565b608082015238611430565b8980fd5b8982880312611687578c8a91825161166981611159565b611672856117b4565b8152828501518382015281520191019061160a565b8d80fd5b634e487b7160e01b8c52604160045260248cfd5b8a80fd5b83513d89823e3d90fd5b90508581813d83116116d3575b6116c48183611174565b81010312610d105751386113bd565b503d6116ba565b865163391434e360e21b81526001600160a01b03919091166004820152602481019190915260448101829052606490fd5b60405163ec442f0560e01b815260006004820152602490fd5b604051634b637e8f60e11b815260006004820152602490fd5b9190820180921161174a57565b634e487b7160e01b600052601160045260246000fd5b81601f82011215610b4f5780516001600160401b0381116111285760405192611793601f8301601f191660200185611174565b81845260208284010111610b4f576117b1916020808501910161106c565b90565b51906001600160a01b0382168203610b4f57565b9160208181850182865252604084019360408360051b82010194846000925b8584106117f8575050505050505090565b90919293949596603f198282030184528735601e1984360301811215610b4f5783018681019190356001600160401b038111610b4f578036038313610b4f5787828280600196849695859652848401376000828201840152601f01601f19160101990197969591909101930191906117e7565b8181029291811591840414171561174a57565b9190820391821161174a57565b60025490611899828261173d565b9160065492600754906118b860646118b1848861186b565b048661173d565b106118c35750505050565b6084945060405193634318b2af60e11b85526004850152602484015260448301526064820152fdfea2646970667358221220156e914f2709dda446ce74e13e13ba33962a5dc27f1059ae5514ce70debda2ae64736f6c63430008140033","linkReferences":{}},"methodIdentifiers":{"DECIMALS()":"2e0f2625","allowance(address,address)":"dd62ed3e","approve(address,uint256)":"095ea7b3","balanceOf(address)":"70a08231","ccipBridge()":"34e5ca79","decimals()":"313ce567","mint(bytes[])":"16c464ae","name()":"06fdde03","owner()":"8da5cb5b","renounceOwnership()":"715018a6","reserveBalance()":"a10954fe","reserveRatio()":"0c7d5cd8","swapRouter()":"c31c9c07","symbol()":"95d89b41","totalSupply()":"18160ddd","transfer(address,uint256)":"a9059cbb","transferFrom(address,address,uint256)":"23b872dd","transferOwnership(address)":"f2fde38b"},"id":43}