{"abi":[{"type":"constructor","inputs":[{"name":"_ccipBridge","type":"address","internalType":"address"},{"name":"_ccipBridgeReceiver","type":"address","internalType":"address"},{"name":"_uniswapRouter","type":"address","internalType":"address"},{"name":"_usdcAddress","type":"address","internalType":"address"},{"name":"_nativeAddress","type":"address","internalType":"address"},{"name":"_pythAddress","type":"address","internalType":"address"},{"name":"_pythFeedId","type":"address","internalType":"address"}],"stateMutability":"nonpayable"},{"type":"function","name":"ccipBridge","inputs":[],"outputs":[{"name":"","type":"address","internalType":"address"}],"stateMutability":"view"},{"type":"function","name":"ccipBridgeReceiver","inputs":[],"outputs":[{"name":"","type":"address","internalType":"address"}],"stateMutability":"view"},{"type":"function","name":"createToken","inputs":[{"name":"name","type":"string","internalType":"string"},{"name":"symbol","type":"string","internalType":"string"}],"outputs":[{"name":"","type":"address","internalType":"contract FightNightToken"}],"stateMutability":"nonpayable"},{"type":"function","name":"deployedTokens","inputs":[{"name":"","type":"uint256","internalType":"uint256"}],"outputs":[{"name":"","type":"address","internalType":"address"}],"stateMutability":"view"},{"type":"function","name":"getDeployedTokens","inputs":[],"outputs":[{"name":"","type":"address[]","internalType":"address[]"}],"stateMutability":"view"},{"type":"function","name":"marketCap","inputs":[],"outputs":[{"name":"","type":"uint256","internalType":"uint256"}],"stateMutability":"view"},{"type":"function","name":"marketCapTolerance","inputs":[],"outputs":[{"name":"","type":"uint256","internalType":"uint256"}],"stateMutability":"view"},{"type":"function","name":"owner","inputs":[],"outputs":[{"name":"","type":"address","internalType":"address"}],"stateMutability":"view"},{"type":"function","name":"renounceOwnership","inputs":[],"outputs":[],"stateMutability":"nonpayable"},{"type":"function","name":"reserveRatio","inputs":[],"outputs":[{"name":"","type":"uint256","internalType":"uint256"}],"stateMutability":"view"},{"type":"function","name":"setCCIPBridge","inputs":[{"name":"_ccipBridge","type":"address","internalType":"address"}],"outputs":[],"stateMutability":"nonpayable"},{"type":"function","name":"setMarketCap","inputs":[{"name":"_marketCap","type":"uint256","internalType":"uint256"},{"name":"_marketCapTolerance","type":"uint256","internalType":"uint256"}],"outputs":[],"stateMutability":"nonpayable"},{"type":"function","name":"setReserveRatio","inputs":[{"name":"_reserveRatio","type":"uint256","internalType":"uint256"}],"outputs":[],"stateMutability":"nonpayable"},{"type":"function","name":"transferOwnership","inputs":[{"name":"newOwner","type":"address","internalType":"address"}],"outputs":[],"stateMutability":"nonpayable"},{"type":"event","name":"MarketCapSet","inputs":[{"name":"marketCap","type":"uint256","indexed":false,"internalType":"uint256"},{"name":"marketCapTolerance","type":"uint256","indexed":false,"internalType":"uint256"}],"anonymous":false},{"type":"event","name":"OwnershipTransferred","inputs":[{"name":"previousOwner","type":"address","indexed":true,"internalType":"address"},{"name":"newOwner","type":"address","indexed":true,"internalType":"address"}],"anonymous":false},{"type":"event","name":"ReserveRatioSet","inputs":[{"name":"reserveRatio","type":"uint256","indexed":false,"internalType":"uint256"}],"anonymous":false},{"type":"event","name":"TokenCreated","inputs":[{"name":"tokenAddress","type":"address","indexed":true,"internalType":"address"},{"name":"creator","type":"address","indexed":false,"internalType":"address"}],"anonymous":false},{"type":"event","name":"ccipBridgeSet","inputs":[{"name":"ccipBridge","type":"address","indexed":false,"internalType":"address"}],"anonymous":false},{"type":"error","name":"OwnableInvalidOwner","inputs":[{"name":"owner","type":"address","internalType":"address"}]},{"type":"error","name":"OwnableUnauthorizedAccount","inputs":[{"name":"account","type":"address","internalType":"address"}]}],"bytecode":{"object":"0x60803461019357601f612ad138819003918201601f19168301916001600160401b038311848410176101985780849260e09460405283398101031261019357610047816101ae565b610053602083016101ae565b90610060604084016101ae565b9261006d606082016101ae565b9061007a608082016101ae565b61009260c061008b60a085016101ae565b93016101ae565b92331561017d5760008054336001600160a01b0319821681178355604051999290916001600160a01b0316907f8be0079c531659141344cd1fd0a4f28419497f9722a3daafe3b4186f6b6457e09080a36064600255600a60038190556004819055600780546001600160a01b03199081166001600160a01b039485161790915560088054821694841694909417909355600980548416948316949094179093558254821693811693909317909155600b805482169383169390931790925560058054831693821693909317909255600680549091169290911691909117905561290e90816101c38239f35b631e4fbdf760e01b600052600060045260246000fd5b600080fd5b634e487b7160e01b600052604160045260246000fd5b51906001600160a01b03821682036101935756fe608080604052600436101561001357600080fd5b60003560e01c9081630c7d5cd81461063f575080632c135b93146106215780632f2f2d561461045b57806334e5ca7914610432578063622ae7aa14610366578063715018a61461030d5780638b4f3b2c146102c15780638da5cb5b14610298578063a81848e91461027a578063c27d57d31461020d578063d203bf2f146101b6578063ec81aadb14610174578063eefeff781461014b5763f2fde38b146100b957600080fd5b34610146576020366003190112610146576004356001600160a01b03811690819003610146576100e7610745565b801561013057600080546001600160a01b03198116831782556001600160a01b0316907f8be0079c531659141344cd1fd0a4f28419497f9722a3daafe3b4186f6b6457e09080a3005b631e4fbdf760e01b600052600060045260246000fd5b600080fd5b34610146576000366003190112610146576006546040516001600160a01b039091168152602090f35b34610146576020366003190112610146576004356001548110156101465761019d6020916106d3565b905460405160039290921b1c6001600160a01b03168152f35b34610146576040366003190112610146577f9eedf0791f6de4ded46f0871baba804b0f20ce1ce1cbb910a799f94cecb46c3f60406004356024356101f8610745565b816002558060035582519182526020820152a1005b34610146576020366003190112610146576004356001600160a01b038116908190036101465760207f9400d3519706b9c070d9ab4c8d354ac1e2c0949bbdc0131f9d41a53a1ca7733c9161025f610745565b600580546001600160a01b03191682179055604051908152a1005b34610146576000366003190112610146576020600354604051908152f35b34610146576000366003190112610146576000546040516001600160a01b039091168152602090f35b34610146576020366003190112610146577f9ef03f0d13f9c31ff0f3068e73c02a4333fa05b02bf58d3801e00fe286191c546020600435610300610745565b80600455604051908152a1005b3461014657600036600319011261014657610326610745565b600080546001600160a01b0319811682556001600160a01b03167f8be0079c531659141344cd1fd0a4f28419497f9722a3daafe3b4186f6b6457e08280a3005b34610146576000366003190112610146576040518060206001549283815201809260016000527fb10e2d527612073b26eecdfd717e6a320cf44b4afac2b0732d9fcbe2b7fa0cf69060005b81811061041357505050816103c791038261065a565b6040519182916020830190602084525180915260408301919060005b8181106103f1575050500390f35b82516001600160a01b03168452859450602093840193909201916001016103e3565b82546001600160a01b03168452602090930192600192830192016103b1565b34610146576000366003190112610146576005546040516001600160a01b039091168152602090f35b346101465760403660031901126101465760043567ffffffffffffffff81116101465761048c90369060040161067c565b60243567ffffffffffffffff8111610146576104ac90369060040161067c565b600254600354600454600554600654600754600854600954600a54600b546040519b6001600160a01b039182169961216a998a8f0199948416989584169796841696841695841694909316929167ffffffffffffffff8a118f8b10176105ff578e9d6105378f926101a060206101809f8f906105459761076f903933815201526101a08d0190610704565b908b820360408d0152610704565b9b60608a0152608089015260a088015260c087015260e0860152610100850152610120840152610140830152610160820152015203906000f0801561061557600154906001600160a01b0316680100000000000000008210156105ff576105b4826001602094016001556106d3565b81549060031b9083821b9160018060a01b03901b1916179055807fd5f9bdf12adf29dab0248c349842c3822d53ae2bb4f36352f301630d018c813983604051338152a2604051908152f35b634e487b7160e01b600052604160045260246000fd5b6040513d6000823e3d90fd5b34610146576000366003190112610146576020600254604051908152f35b34610146576000366003190112610146576020906004548152f35b90601f8019910116810190811067ffffffffffffffff8211176105ff57604052565b81601f820112156101465780359067ffffffffffffffff82116105ff57604051926106b1601f8401601f19166020018561065a565b8284526020838301011161014657816000926020809301838601378301015290565b6001548110156106ee57600160005260206000200190600090565b634e487b7160e01b600052603260045260246000fd5b919082519283825260005b848110610730575050826000602080949584010152601f8019910116010190565b8060208092840101518282860101520161070f565b6000546001600160a01b0316330361075957565b63118cdaa760e01b6000523360045260246000fdfe610140604052346105265761216a8038038061001a8161052b565b9283398101906101a0818303126105265761003481610550565b60208201516001600160401b0381116105265783610053918401610564565b604083015190936001600160401b03821161052657610073918401610564565b606083015160808401519060a085015161008f60c08701610550565b61009b60e08801610550565b610100880151949092906001600160a01b038616860361052657889788976100ed6101806100e66101606100df6101406100d88f61012001610550565b9e01610550565b9d01610550565b9c01610550565b8c51909c6001600160401b0382116104235760035490600182811c9216801561051c575b60208310146104035781601f8493116104ac575b50602090601f831160011461044457600092610439575b50508160011b916000199060031b1c1916176003555b8051906001600160401b0382116104235760045490600182811c92168015610419575b60208310146104035781601f849311610393575b50602090601f831160011461032b57600092610320575b50508160011b916000199060031b1c1916176004555b6001600160a01b0316801561030a57600580546001600160a01b0319811683179091556001600160a01b03167f8be0079c531659141344cd1fd0a4f28419497f9722a3daafe3b4186f6b6457e0600080a3600160ff196008541617600855652079244ea800600955600b549480158015610302575b6102eb57600655600755600a5560805260018060a01b03169060018060a81b03191617600b5560a05260c05260e05260018060a01b031660018060a01b0319600c541617600c5561012052604051611b9a90816105d0823960805181818161044101528181610a160152611670015260a0518181816101dd015281816109db01526115f6015260c051818181610924015261153f015260e0518181816108fe015261151901526101005181505061012051818181610862015261147c0152f35b63dd5c70e360e01b60005260045260245260446000fd5b50811561022b565b631e4fbdf760e01b600052600060045260246000fd5b0151905038806101a0565b600460009081528281209350601f198516905b81811061037b5750908460019594939210610362575b505050811b016004556101b6565b015160001960f88460031b161c19169055388080610354565b9293602060018192878601518155019501930161033e565b60046000529091507f8a35acfbc15ff81a39ae7d344fd709f28e8600b4aa8c65c6b64bfe7fe36bd19b601f840160051c810191602085106103f9575b90601f859493920160051c01905b8181106103ea5750610189565b600081558493506001016103dd565b90915081906103cf565b634e487b7160e01b600052602260045260246000fd5b91607f1691610175565b634e487b7160e01b600052604160045260246000fd5b01519050388061013c565b600360009081528281209350601f198516905b818110610494575090846001959493921061047b575b505050811b01600355610152565b015160001960f88460031b161c1916905538808061046d565b92936020600181928786015181550195019301610457565b60036000529091507fc2575a0e9e593c00f959f8c92f12db2869c3395a3b0502d05e2516446f71f85b601f840160051c81019160208510610512575b90601f859493920160051c01905b8181106105035750610125565b600081558493506001016104f6565b90915081906104e8565b91607f1691610111565b600080fd5b6040519190601f01601f191682016001600160401b0381118382101761042357604052565b51906001600160a01b038216820361052657565b81601f82011215610526578051906001600160401b03821161042357610593601f8301601f191660200161052b565b92828452602083830101116105265760005b8281106105ba57505060206000918301015290565b806020809284010151828287010152016105a556fe608080604052600436101561001357600080fd5b600090813560e01c90816306fdde031461106f57508063095ea7b314610fc55780630c7d5cd814610fa757806316c464ae146105b057806318160ddd1461059257806323b872dd146104ad5780632e0f26251461048c578063313ce5671461047057806334e5ca791461042b57806370a08231146103f3578063715018a6146103965780638da5cb5b1461036d57806395d89b411461025c578063a10954fe1461023e578063a9059cbb1461020c578063c31c9c07146101c7578063dd62ed3e146101725763f2fde38b146100e757600080fd5b3461016f57602036600319011261016f57610100611170565b610108611a73565b6001600160a01b0316801561015b57600580546001600160a01b0319811683179091556001600160a01b03167f8be0079c531659141344cd1fd0a4f28419497f9722a3daafe3b4186f6b6457e08380a380f35b631e4fbdf760e01b82526004829052602482fd5b80fd5b503461016f57604036600319011261016f57604061018e611170565b91610197611186565b9260018060a01b031681526001602052209060018060a01b03166000526020526020604060002054604051908152f35b503461016f578060031936011261016f576040517f00000000000000000000000000000000000000000000000000000000000000006001600160a01b03168152602090f35b503461016f57604036600319011261016f57610233610229611170565b6024359033611328565b602060405160018152f35b503461016f578060031936011261016f576020600954604051908152f35b503461016f578060031936011261016f576040519080600454908160011c91600181168015610363575b60208410811461034f5783865290811561032857506001146102cb575b6102c7846102b38186038261121f565b60405191829160208352602083019061114b565b0390f35b600481527f8a35acfbc15ff81a39ae7d344fd709f28e8600b4aa8c65c6b64bfe7fe36bd19b939250905b80821061030e575090915081016020016102b3826102a3565b9192600181602092548385880101520191019092916102f5565b60ff191660208087019190915292151560051b850190920192506102b391508390506102a3565b634e487b7160e01b83526022600452602483fd5b92607f1692610286565b503461016f578060031936011261016f576005546040516001600160a01b039091168152602090f35b503461016f578060031936011261016f576103af611a73565b600580546001600160a01b0319811690915581906001600160a01b03167f8be0079c531659141344cd1fd0a4f28419497f9722a3daafe3b4186f6b6457e08280a380f35b503461016f57602036600319011261016f576020906040906001600160a01b0361041b611170565b1681528083522054604051908152f35b503461016f578060031936011261016f576040517f00000000000000000000000000000000000000000000000000000000000000006001600160a01b03168152602090f35b503461016f578060031936011261016f57602060405160128152f35b503461016f578060031936011261016f57602060405165033f506e44008152f35b503461016f57606036600319011261016f576104c7611170565b6104cf611186565b6001600160a01b038216808452600160208181526040808720336000908152925290205460443594929091820161050d575b50506102339350611328565b84821061057757801561056357331561054f5785604091610233975260016020522060018060a01b033316600052602052836040600020910390553880610501565b634a1406b160e11b86526004869052602486fd5b63e602df0560e01b86526004869052602486fd5b6064868684637dc7a0d960e11b835233600452602452604452fd5b503461016f578060031936011261016f576020600254604051908152f35b50602036600319011261016f576004356001600160401b038111610fa35736602382011215610fa35780600401356001600160401b038111610b67576024820191602436918360051b010111610b675760ff6008541615610f81573415610f3c57600c5460405163d47eed4560e01b8152849290916001600160a01b031660208380610640858960048401611263565b0381845afa928315610f31578493610efd575b50803b15610ef957604051631df3cbc560e31b815294849386938492839161067e9160048401611263565b03925af18015610eec57610edc575b5050600254600954600a546106c06106a53485611240565b65033f506e4400806106b78380611308565b04910490611308565b60018101808211610ec85760011c815b828210610e955750506106ec92916106e791611308565b61131b565b906106f682611a9c565b3315610e815760ff6008541615610e60575061071181611a9c565b61071d81600254611240565b6002553382528160205260408220818154019055604051818152827fddf252ad1be2c89b69c2b068fc378daa952ba7f163c4a11628f55a4df523b3ef60203393a36002546006546007549161077e60646107778585611308565b048361131b565b81116107d7575b6020847f4c209b5fc8ad50758f13e2e1088ba56a560dff690a1c6fef26394f4c03821c4f6060886107b834600954611240565b60095560405190503381528385820152346040820152a1604051908152f35b604080519283526020830193909352918101919091527f1c57fb69fce4aa788d7d199633f9b1cc5d83d73431cc864621910192aa662ad490606090a160ff196008541660085581606060405161082c8161119c565b828152826020820152826040820152015260018060a01b03600c5416608060405160208101906bffffffffffffffffffffffff197f000000000000000000000000000000000000000000000000000000000000000060601b1682526014815261089660348261121f565b5190519060208110610e4e575b5060446040518094819363052571af60e51b83526004830152603c60248301525afa8015610b7357610dcc575b503082528160205260408220546104b042014211610db8576040516108f4816111cd565b6001600160a01b037f000000000000000000000000000000000000000000000000000000000000000081168083527f000000000000000000000000000000000000000000000000000000000000000082166020808501828152610bb8604080880191825230606089019081524260808a0190815260a08a019a8b5260c08a018d815260e08b018e8152935163414bf38960e01b81529a518a1660048c01529451891660248b0152925162ffffff1660448a0152518716606489015290516084880152965160a48701525160c48601529451831660e4850152939091839061010490829089907f0000000000000000000000000000000000000000000000000000000000000000165af1918215610dad578592610d79575b508460018060a01b037f0000000000000000000000000000000000000000000000000000000000000000169260018060a01b03600b54169260405191632b877b4360e21b835284600484015260a060248401528360a484015286604484015260648301526084820152818160c481875afa908115610d6e578291610bc2575b506020015191604051946370a0823160e01b8652306004870152602086602481845afa958615610b73578396610b7e575b5091610afe93916020959360405197889687958694630774476b60e21b865267de41ba4fc9d91ad96004870152602486015260a0604486015260a485019061114b565b916064840152608483015203925af18015610b7357610b1f575b8080610785565b6020813d602011610b6b575b81610b386020938361121f565b81010312610b6757507f4c209b5fc8ad50758f13e2e1088ba56a560dff690a1c6fef26394f4c03821c4f610b18565b8280fd5b3d9150610b2b565b6040513d85823e3d90fd5b9492509450916020843d602011610bba575b81610b9d6020938361121f565b81010312610bb5579251939092918691610afe610abb565b600080fd5b3d9150610b90565b9150503d8087833e610bd4818361121f565b810190602081830312610d66578051906001600160401b038211610d6a570160a081830312610d665760405190610c0a826111e9565b80516001600160401b038111610d625783610c26918301611afc565b825260208101516001600160401b038111610d625783610c47918301611afc565b602083015260408101516001600160401b038111610d6257810183601f82011215610d625780516001600160401b038111610d4e5760405191610c9060208360051b018461121f565b81835260208084019260061b82010190868211610d4a579060208c97969594939201915b818310610d04575050506040830152610ccf60608201611b50565b60608301526080810151926001600160401b038411610d0057602093610cf59201611afc565b608082015290610a8a565b8480fd5b9091929394959650604083880312610d4a5760206040918251610d2681611204565b610d2f86611b50565b815282860151838201528152019201908b9695949392610cb4565b8b80fd5b634e487b7160e01b8a52604160045260248afd5b8880fd5b8680fd5b8780fd5b6040513d84823e3d90fd5b9091506020813d602011610da5575b81610d956020938361121f565b81010312610bb557519038610a0b565b3d9150610d88565b6040513d87823e3d90fd5b634e487b7160e01b83526011600452602483fd5b6080813d608011610e46575b81610de56080938361121f565b81010312610b675760405190610dfa8261119c565b80518060070b8103610d0057825260208101516001600160401b0381168103610d005760208301526040810151908160030b8203610d00576060916040840152015160608201526108d0565b3d9150610dd8565b6000199060200360031b1b16386108a3565b600654600754632ae9893d60e01b8552600491909152602452604452606482fd5b63ec442f0560e01b83526004839052602483fd5b909150818015610eb45780610eab918304611240565b60011c906106d0565b634e487b7160e01b87526012600452602487fd5b634e487b7160e01b86526011600452602486fd5b610ee59161121f565b388161068d565b50604051903d90823e3d90fd5b8380fd5b9092506020813d602011610f29575b81610f196020938361121f565b81010312610ef957519138610653565b3d9150610f0c565b6040513d86823e3d90fd5b60405162461bcd60e51b815260206004820152601960248201527f4465706f736974206d757374206265206e6f6e2d7a65726f2e000000000000006044820152606490fd5b60648360065460075460025491632ae9893d60e01b8452600452602452604452fd5b5080fd5b503461016f578060031936011261016f576020600a54604051908152f35b503461016f57604036600319011261016f57610fdf611170565b60243590331561105b576001600160a01b03169182156110475760408291338152600160205281812085825260205220556040519081527f8c5be1e5ebec7d5bd14f71427d1e84f3dd0314c0f7b2291e5b200ac8c7c3b92560203392a3602060405160018152f35b634a1406b160e11b81526004819052602490fd5b63e602df0560e01b83526004839052602483fd5b823461016f578060031936011261016f5780600354908160011c9160018116801561111e575b60208410811461034f5783865290811561032857506001146110c1576102c7846102b38186038261121f565b600381527fc2575a0e9e593c00f959f8c92f12db2869c3395a3b0502d05e2516446f71f85b939250905b808210611104575090915081016020016102b3826102a3565b9192600181602092548385880101520191019092916110eb565b92607f1692611095565b60005b83811061113b5750506000910152565b818101518382015260200161112b565b9060209161116481518092818552858086019101611128565b601f01601f1916010190565b600435906001600160a01b0382168203610bb557565b602435906001600160a01b0382168203610bb557565b608081019081106001600160401b038211176111b757604052565b634e487b7160e01b600052604160045260246000fd5b61010081019081106001600160401b038211176111b757604052565b60a081019081106001600160401b038211176111b757604052565b604081019081106001600160401b038211176111b757604052565b90601f801991011681019081106001600160401b038211176111b757604052565b9190820180921161124d57565b634e487b7160e01b600052601160045260246000fd5b9180602084016020855252604083019060408160051b8501019383600091601e1982360301905b84841061129b575050505050505090565b90919293949596603f19828203018752873583811215610bb557840190602082359201916001600160401b038111610bb5578036038313610bb5576020828280600196849695859652848401376000828201840152601f01601f191601019901970195940192919061128a565b8181029291811591840414171561124d57565b9190820391821161124d57565b6001600160a01b0316908115611a5d576001600160a01b0316908115611a475760ff6008541615611a235761135c83611a9c565b600092818452836020526040842054818110611a0857817fddf252ad1be2c89b69c2b068fc378daa952ba7f163c4a11628f55a4df523b3ef9260209285885287845203604087205584865285825260408620818154019055604051908152a3600254600654600754906113db60646113d48484611308565b048261131b565b83116113e8575b50505050565b61142a7f1c57fb69fce4aa788d7d199633f9b1cc5d83d73431cc864621910192aa662ad493604051938493846040919493926060820195825260208201520152565b0390a160ff19600854166008558060606040516114468161119c565b828152826020820152826040820152015260018060a01b03600c5416608060405160208101906bffffffffffffffffffffffff197f000000000000000000000000000000000000000000000000000000000000000060601b168252601481526114b060348261121f565b51905190602081106119f6575b5060446040518094819363052571af60e51b83526004830152603c60248301525afa8015610d6e57611974575b50308152806020526040812054906104b0420142116119605760405161150f816111cd565b6001600160a01b037f000000000000000000000000000000000000000000000000000000000000000081168083527f000000000000000000000000000000000000000000000000000000000000000082166020808501828152610bb8604080880191825230606089019081524260808a0190815260a08a019b8c5260c08a018b815260e08b018c8152935163414bf38960e01b81529a518a1660048c01529451891660248b0152925162ffffff1660448a0152518716606489015290516084880152975160a48701525160c48601529551831660e4850152949091839061010490829087907f0000000000000000000000000000000000000000000000000000000000000000165af1918215610b7357839261192c575b50600b54604051632b877b4360e21b81526001600160a01b039182166004820181905260a0602483015260a4820186905260448201879052606482019490945260848101929092527f0000000000000000000000000000000000000000000000000000000000000000169190838160c481865afa8015610f315784906117a2575b60209150015190604051946370a0823160e01b8652306004870152602086602481845afa958615610dad57859661176e575b5091846020949261171c9460405198899687958694630774476b60e21b865267de41ba4fc9d91ad96004870152602486015260a0604486015260a485019061114b565b916064840152608483015203925af18015610eec5761173d575b80806113e2565b6020823d602011611766575b816117566020938361121f565b8101031261016f57505138611736565b3d9150611749565b9095506020813d60201161179a575b8161178a6020938361121f565b81010312610d00575194846116d9565b3d915061177d565b503d8085833e6117b2818361121f565b810190602081830312610d00578051906001600160401b03821161192857019060a082820312610d0057604051916117e9836111e9565b80516001600160401b038111610d665782611805918301611afc565b835260208101516001600160401b038111610d665782611826918301611afc565b602084015260408101516001600160401b038111610d6657810182601f82011215610d665780516001600160401b038111611914576040519161186f60208360051b018461121f565b81835260208084019260061b8201019085821161191057602001915b8183106118d85750505060408401526118a660608201611b50565b60608401526080810151906001600160401b038211610d6657916118ce916020949301611afc565b60808201526116a7565b60408387031261191057602060409182516118f281611204565b6118fb86611b50565b8152828601518382015281520192019161188b565b8980fd5b634e487b7160e01b88526041600452602488fd5b8580fd5b9091506020813d602011611958575b816119486020938361121f565b81010312610b6757519038611626565b3d915061193b565b634e487b7160e01b81526011600452602490fd5b6080813d6080116119ee575b8161198d6080938361121f565b81010312610fa357604051906119a28261119c565b80518060070b8103610ef957825260208101516001600160401b0381168103610ef957602083015260408101518060030b8103610ef957906060916040840152015160608201526114ea565b3d9150611980565b6000199060200360031b1b16386114bd565b60649350849263391434e360e21b8452600452602452604452fd5b60065460075460025491632ae9893d60e01b60005260045260245260445260646000fd5b63ec442f0560e01b600052600060045260246000fd5b634b637e8f60e11b600052600060045260246000fd5b6005546001600160a01b03163303611a8757565b63118cdaa760e01b6000523360045260246000fd5b60025490611aaa8282611240565b916006549260075490611ac96064611ac28488611308565b0486611240565b10611ad45750505050565b6084945060405193634318b2af60e11b85526004850152602484015260448301526064820152fd5b81601f82011215610bb55780516001600160401b0381116111b75760405192611b2f601f8301601f19166020018561121f565b81845260208284010111610bb557611b4d9160208085019101611128565b90565b51906001600160a01b0382168203610bb55756fea26469706673582212204762c1d7fb2e8473ca11641c63df980a38c590b8e779ea4c8179a92507c55b4764736f6c634300081a0033a264697066735822122029efa9df0deeff5cc6c9d358d3f6165172a041297040671346e66738be03806264736f6c634300081a0033","linkReferences":{}},"methodIdentifiers":{"ccipBridge()":"34e5ca79","ccipBridgeReceiver()":"eefeff78","createToken(string,string)":"2f2f2d56","deployedTokens(uint256)":"ec81aadb","getDeployedTokens()":"622ae7aa","marketCap()":"2c135b93","marketCapTolerance()":"a81848e9","owner()":"8da5cb5b","renounceOwnership()":"715018a6","reserveRatio()":"0c7d5cd8","setCCIPBridge(address)":"c27d57d3","setMarketCap(uint256,uint256)":"d203bf2f","setReserveRatio(uint256)":"8b4f3b2c","transferOwnership(address)":"f2fde38b"},"storageLayout":{"storage":[{"astId":35406,"contract":"src/FightNightTokenFactory.sol:FightNightTokenFactory","label":"_owner","offset":0,"slot":"0","type":"t_address"},{"astId":39297,"contract":"src/FightNightTokenFactory.sol:FightNightTokenFactory","label":"deployedTokens","offset":0,"slot":"1","type":"t_array(t_address)dyn_storage"},{"astId":39300,"contract":"src/FightNightTokenFactory.sol:FightNightTokenFactory","label":"marketCap","offset":0,"slot":"2","type":"t_uint256"},{"astId":39303,"contract":"src/FightNightTokenFactory.sol:FightNightTokenFactory","label":"marketCapTolerance","offset":0,"slot":"3","type":"t_uint256"},{"astId":39306,"contract":"src/FightNightTokenFactory.sol:FightNightTokenFactory","label":"reserveRatio","offset":0,"slot":"4","type":"t_uint256"},{"astId":39308,"contract":"src/FightNightTokenFactory.sol:FightNightTokenFactory","label":"ccipBridge","offset":0,"slot":"5","type":"t_address"},{"astId":39310,"contract":"src/FightNightTokenFactory.sol:FightNightTokenFactory","label":"ccipBridgeReceiver","offset":0,"slot":"6","type":"t_address"},{"astId":39313,"contract":"src/FightNightTokenFactory.sol:FightNightTokenFactory","label":"uniswapRouter","offset":0,"slot":"7","type":"t_contract(ISwapRouter)39623"},{"astId":39315,"contract":"src/FightNightTokenFactory.sol:FightNightTokenFactory","label":"usdcAddress","offset":0,"slot":"8","type":"t_address"},{"astId":39317,"contract":"src/FightNightTokenFactory.sol:FightNightTokenFactory","label":"nativeAddress","offset":0,"slot":"9","type":"t_address"},{"astId":39319,"contract":"src/FightNightTokenFactory.sol:FightNightTokenFactory","label":"pythAddress","offset":0,"slot":"10","type":"t_address"},{"astId":39321,"contract":"src/FightNightTokenFactory.sol:FightNightTokenFactory","label":"pythFeedId","offset":0,"slot":"11","type":"t_address"}],"types":{"t_address":{"encoding":"inplace","label":"address","numberOfBytes":"20"},"t_array(t_address)dyn_storage":{"encoding":"dynamic_array","label":"address[]","numberOfBytes":"32","base":"t_address"},"t_contract(ISwapRouter)39623":{"encoding":"inplace","label":"contract ISwapRouter","numberOfBytes":"20"},"t_uint256":{"encoding":"inplace","label":"uint256","numberOfBytes":"32"}}},"id":44}